:020000040000FA
:10000000FC3F00208901000000000000000000000B
:1000100000000000000000000000000000000000E0
:1000200000000000000000000000000000000000D0
:1000300000000000000000000000000000000000C0
:10004000000000008D010000000000000000000022
:1000500000000000000000000000000000000000A0
:100060000000000000000000000000000000000090
:100070000000000000000000000000000000000080
:1000800000F002F800F04DF80CA030C80838241831
:100090002D18A246671EAB4654465D46AC4201D1C0
:1000A00000F03FF87E460F3E0FCCB64601263342A5
:1000B00000D0FB1AA246AB4633431847580900004C
:1000C00078090000103A02D378C878C1FAD85207EC
:1000D00001D330C830C101D504680C6070470000FE
:1000E0000023002400250026103A01D378C1FBD854
:1000F000520700D330C100D50B60704710B564299A
:1001000002D100F09BFA10BD632902D100F0E0FBA0
:1001100010BD002010BD1FB5C046C0461FBD10B5A4
:1001200010BD00F021FC1146FFF7F5FF00F035F996
:1001300000F039FC03B4FFF7F2FF03BC00F018F83D
:1001400000BF51210906097AC907C90FF9D1512207
:1001500012061071704710B503460C461846FFF79B
:10016000EFFF10BD01460020704701460020704798
:1001700002A000F0F5F900BFFEE700000A54455365
:100180005420444F4E450A000548004707B500F08B
:1001900011F807BD03480449044A054B70470000A5
:1001A000810000006001002060090020600500203F
:1001B00060050020512109060878D949D94A1278EA
:1001C0008854D8490978491CD64A1170512109062A
:1001D000087111460978632901D00D280CD1D14945
:1001E0000978491ECF4A11700021CD4ACD4B1B78AA
:1001F000D1540121CC4A1170704708B500210091FB
:1002000002E00099491C009100998142F9D308BD90
:10021000072253231B069A6000BF53221206D2689E
:1002200004231A42F9D0020205235B04D2185218A3
:1002300053231B061A6000BF53221206D268042300
:100240001A42F9D0704701460720532212069060E7
:1002500000BF53200006C06804221042F9D00802F3
:100260000B221204801853221206106000BF532084
:100270000006C06804221042F9D0532000064068EE
:10028000C0B2704700B50520000700890012C022E7
:100290001040014613312C20FFF7BAFF00205321F4
:1002A0000906C86002212D20FFF7B2FF00BD30B55E
:1002B0000346C8009D4C00195C00005B9C009C4DEF
:1002C0002C59201A9C002851C800984C00195C0039
:1002D0000253C800954C00195C00005B9C002C592F
:1002E00000199C00285198002C4620580003000C4F
:1002F00030BD70B50646002500240EE00A213046C8
:1003000000F0DCF9A0008140481985B20A2130468E
:1003100000F0D4F986B2601CC4B2042CEEDB28468F
:1003200070BDF8B505460F4614460120C0032040B5
:100330000121C903884219D1E043401C4404640CE4
:10034000224639462846FFF7B2FF04B2A0B2FFF7B3
:10035000D0FF064629465831224676A000F000F923
:10036000301105214903401886B214E0A2B2394683
:100370002846FFF79CFF04B22946583122466DA05B
:1003800000F0EEF8A0B2FFF7B4FF064630110B21E3
:100390000903401886B23046F8BD8AB06848099013
:1003A0000020089001250790069005900490039086
:1003B00002900190002400260820512109060873AC
:1003C0000220604908606048FFF717FF5F4800F0AF
:1003D000C7F8FFF757FFA2E00520000700890321B7
:1003E0008903084004D001218903401A04D101E0A7
:1003F000012503E0022501E0042500BF00BF052020
:10040000000700890012C02210401330C1B22C2016
:10041000FFF7FEFE4C48FFF7F0FE0F20FFF713FF3B
:1004200003020E20FFF70FFF1818684300B2079071
:100430001120FFF708FF03021020FFF704FF181830
:10044000684300B206901320FFF7FDFE030212205E
:10045000FFF7F9FE1818684300B205901520FFF762
:10046000F2FE07021420FFF7EEFE3B18D80FC0186B
:1004700041100998081A00B2049031460020079AEA
:10048000FFF74FFF039031460120069AFFF749FF1F
:10049000029031460220059AFFF743FF019004982D
:1004A00082B231460320FFF702FF0446F8222146BC
:1004B00027A000F055F82046FFF71BFF0446BB209D
:1004C0000002201884B224A000F04AF8052000079A
:1004D0000089C007C00F02D0012813D109E003989A
:1004E00000040299084308904420292149064860E5
:1004F00008E0019800042043089040202921490683
:10050000486000BF00BF2921490608980860701C98
:10051000C117090F091809110901411ACEB25BE789
:100520009C00002008000020090000200C00002092
:100530008C0000200925633A2564206D67000000C7
:10054000BC7F000000E100E020A10700BC09000022
:1005500009256425634300000D0A00007047000070
:100560000FB4054910B503AA029800F0BDF910BCFC
:1005700008BC04B01847000000000020F8B50E4683
:100580000446002020622046E1688847002829D0E0
:10059000252802D06268A16820E0E1682046002793
:1005A000884705001ED028464138192802D801275F
:1005B000FF0220353246204627602946FFF79EFD80
:1005C000002808D0012804D0F61DF608F6000836E9
:1005D000D9E7361DD7E762682846A1689047206AA8
:1005E000401CCFE7206AF8BD70B50C460546012ACD
:1005F00005D02878800600D5EA69002302E00123AF
:1006000005E05B1C934202D2E05C0028F9D1A869A6
:10061000E618C01AA861286AC01828622846C04691
:10062000C04604E06A682078A968641C9047B44218
:10063000F8D32846C046C04670BD0000F7B5002577
:1006400075291068009914A611D0C046C04600282C
:1006500002DA404211A608E0009909688A0701D52C
:100660000FA602E0490704D50EA6012501E0C04609
:10067000C046009F0024243704E000F049F93031DF
:100680003955641C0028F8D12B4632462146009883
:1006900000F0BBF8FEBD0000000000002D000000CF
:1006A0002B00000020000000002203098B422CD305
:1006B000030A8B4211D300239C464EE003460B43B2
:1006C0003CD4002243088B4231D303098B421CD314
:1006D000030A8B4201D394463FE0C3098B4201D306
:1006E000CB01C01A524183098B4201D38B01C01A3E
:1006F000524143098B4201D34B01C01A52410309B5
:100700008B4201D30B01C01A5241C3088B4201D363
:10071000CB00C01A524183088B4201D38B00C01A10
:10072000524143088B4201D34B00C01A5241411A37
:1007300000D201465241104670475DE0CA0F00D01A
:100740004942031000D34042534000229C46030913
:100750008B422DD3030A8B4212D3FC22890112BA99
:10076000030A8B420CD3890192118B4208D3890171
:1007700092118B4204D389013AD0921100E0890989
:10078000C3098B4201D3CB01C01A524183098B426A
:1007900001D38B01C01A524143098B4201D34B0153
:1007A000C01A524103098B4201D30B01C01A5241B6
:1007B000C3088B4201D3CB00C01A524183088B423D
:1007C00001D38B00C01A5241D9D243088B4201D3C6
:1007D0004B00C01A5241411A00D2014663465241B1
:1007E0005B10104601D34042002B00D549427047B0
:1007F00063465B1000D3404201B50020C046C046AE
:1008000002BD7047704770477047FFB504460D46FC
:1008100081B0243000902168880604D51022E06958
:100820009143216000E00120A84201DD471B00E068
:1008300000270498A1697A191018081AA061207875
:10084000C00602D42046C046C046002608E00398F1
:100850006268A168805D9047206A401C761C206217
:1008600004988642F3DB2078C0060AD52046C046AD
:10087000C04606E06268A16830209047206A401CAC
:10088000206238467F1E0028F4DC07E0009862688A
:10089000A168405D9047206A401C206228466D1E7A
:1008A0000028F3DC2046C046C0462078000602D56A
:1008B000022005B0F0BD0120FBE710B54369002B15
:1008C00002D0C046C04601E0FFF78EFE012010BDF9
:1008D0001278014624310A7000224A700122ECE7A6
:1008E00011680022D243E8E7084B70B50D467B44FF
:1008F00000F027F804462846FFF737FC002802D00E
:100900000020C04370BD204670BD000065F8FFFFA9
:1009100001468008081A02091018020A1018020C71
:100920001018C008820012185200891A01E00A3912
:10093000401C0A29FBD2704701694A1C02610878F1
:10094000704700B58FB002910021059105490193D0
:1009500079440391114604906846FFF70FFE0FB0EB
:1009600000BD0000E5FFFFFF754600F023F8AE462E
:10097000050069465346C008C000854618B020B53A
:10098000FFF708FC60BC00274908B6460026C0C532
:10099000C0C5C0C5C0C5C0C5C0C5C0C5C0C5403D37
:1009A00049008D4670470446C046C0462046FFF7C2
:1009B000C1FB000000487047000100200D0A576588
:1009C0006C636F6D6520746F204469676974616C36
:1009D00020656D6265646465642073797374656D08
:1009E00020636C61737320616E64206E6F77207773
:1009F00065206172652072656164696E6720746844
:100A00006520616363656C65726F6D657465720DF9
:100A10000A000000340A0000000000200C00000062
:100A2000C4000000400A00000C000020540900002F
:100A3000E000000004000051000000510000000030
:04000005000001896D
:00000001FF
